{
  "address": "0xf6aACE498919826cFDbC8C3C125D6FCE161Ce39f",
  "abi": [
    {
      "inputs": [],
      "name": "ZamaProtocolUnsupported",
      "type": "error"
    },
    {
      "anonymous": false,
      "inputs": [
        {
          "indexed": true,
          "internalType": "address",
          "name": "auctionAddress",
          "type": "address"
        },
        {
          "indexed": true,
          "internalType": "address",
          "name": "creator",
          "type": "address"
        },
        {
          "indexed": false,
          "internalType": "uint8",
          "name": "category",
          "type": "uint8"
        },
        {
          "indexed": false,
          "internalType": "string",
          "name": "itemTitle",
          "type": "string"
        }
      ],
      "name": "AuctionCreated",
      "type": "event"
    },
    {
      "inputs": [
        {
          "internalType": "uint256",
          "name": "",
          "type": "uint256"
        }
      ],
      "name": "allAuctions",
      "outputs": [
        {
          "internalType": "address",
          "name": "",
          "type": "address"
        }
      ],
      "stateMutability": "view",
      "type": "function"
    },
    {
      "inputs": [
        {
          "internalType": "address",
          "name": "",
          "type": "address"
        }
      ],
      "name": "auctionCreators",
      "outputs": [
        {
          "internalType": "address",
          "name": "",
          "type": "address"
        }
      ],
      "stateMutability": "view",
      "type": "function"
    },
    {
      "inputs": [],
      "name": "confidentialProtocolId",
      "outputs": [
        {
          "internalType": "uint256",
          "name": "",
          "type": "uint256"
        }
      ],
      "stateMutability": "view",
      "type": "function"
    },
    {
      "inputs": [
        {
          "internalType": "string",
          "name": "_itemURI",
          "type": "string"
        },
        {
          "internalType": "string",
          "name": "_itemTitle",
          "type": "string"
        },
        {
          "internalType": "string",
          "name": "_itemDescription",
          "type": "string"
        },
        {
          "internalType": "address",
          "name": "_paymentToken",
          "type": "address"
        },
        {
          "internalType": "uint256",
          "name": "_durationSeconds",
          "type": "uint256"
        },
        {
          "internalType": "uint8",
          "name": "_category",
          "type": "uint8"
        },
        {
          "internalType": "address",
          "name": "_nftContract",
          "type": "address"
        },
        {
          "internalType": "uint256",
          "name": "_nftTokenId",
          "type": "uint256"
        }
      ],
      "name": "createAuction",
      "outputs": [
        {
          "internalType": "address",
          "name": "",
          "type": "address"
        }
      ],
      "stateMutability": "nonpayable",
      "type": "function"
    },
    {
      "inputs": [],
      "name": "getAllAuctions",
      "outputs": [
        {
          "internalType": "address[]",
          "name": "",
          "type": "address[]"
        }
      ],
      "stateMutability": "view",
      "type": "function"
    },
    {
      "inputs": [],
      "name": "getAuctionCount",
      "outputs": [
        {
          "internalType": "uint256",
          "name": "",
          "type": "uint256"
        }
      ],
      "stateMutability": "view",
      "type": "function"
    },
    {
      "inputs": [
        {
          "internalType": "address",
          "name": "_auction",
          "type": "address"
        }
      ],
      "name": "getAuctionInfo",
      "outputs": [
        {
          "components": [
            {
              "internalType": "address",
              "name": "auctionAddress",
              "type": "address"
            },
            {
              "internalType": "address",
              "name": "creator",
              "type": "address"
            },
            {
              "internalType": "string",
              "name": "itemTitle",
              "type": "string"
            },
            {
              "internalType": "uint8",
              "name": "category",
              "type": "uint8"
            },
            {
              "internalType": "uint256",
              "name": "deadline",
              "type": "uint256"
            },
            {
              "internalType": "uint8",
              "name": "status",
              "type": "uint8"
            },
            {
              "internalType": "uint256",
              "name": "bidderCount",
              "type": "uint256"
            }
          ],
          "internalType": "struct AuctionFactory.AuctionInfo",
          "name": "",
          "type": "tuple"
        }
      ],
      "stateMutability": "view",
      "type": "function"
    },
    {
      "inputs": [
        {
          "internalType": "uint256",
          "name": "offset",
          "type": "uint256"
        },
        {
          "internalType": "uint256",
          "name": "limit",
          "type": "uint256"
        }
      ],
      "name": "getAuctionsPaginated",
      "outputs": [
        {
          "internalType": "address[]",
          "name": "",
          "type": "address[]"
        }
      ],
      "stateMutability": "view",
      "type": "function"
    }
  ],
  "transactionHash": "0xbe5c12e517117584dbdfb06bb08ce453c472eed238b924bb98eb4422cb5277d5",
  "args": [],
  "numDeployments": 3,
  "solcInputHash": "238462ce6c3fcdd23e5d0b19afdbab28",
  "bytecode": "0x608060405234801561000f575f5ffd5b506100c461001b6100c9565b80517f9e7b61f58c47dc699ac88507c4f5bb9f121c03808c5676a8078fe583e464970080546001600160a01b03199081166001600160a01b039384161790915560208301517f9e7b61f58c47dc699ac88507c4f5bb9f121c03808c5676a8078fe583e46497018054831691841691909117905560408301517f9e7b61f58c47dc699ac88507c4f5bb9f121c03808c5676a8078fe583e46497028054909216921691909117905550565b610278565b604080516060810182525f808252602082018190529181019190915246600103610162575060408051606080820183525f8083526020808401829052928401528251908101835273ca2e8f1f656cd25c01f05d0b243ab1ecd4a8ffb6815273d82385dada1ae3e969447f20a3164f6213100e75918101919091527377627828a55156b04ac0dc0eb30467f1a552bb039181019190915290565b4662aa36a7036101e1575060408051606080820183525f8083526020808401829052928401528251908101835273f0ffdc93b7e186bc2f8cb3daa75d86d1930a433d81527392c920834ec8941d2c77d188936e1f7a6f49c1279181019190915273be0e383937d564d7ff0bc3b46c51f0bf8d5c311a9181019190915290565b46617a690361025f575060408051606080820183525f808352602080840182905292840152825190810183527350157cffd6bbfa2dece204a89ec419c23ef5755d815273e3a9105a3a932253a70f126eb1e3b589c643dd249181019190915273901f8942346f7ab3a01f6d7613119bca447bb0309181019190915290565b6040516373cac13b60e01b815260040160405180910390fd5b6128eb806102855f395ff3fe608060405234801561000f575f5ffd5b5060043610610084575f3560e01c8063c1a3801311610058578063c1a3801314610116578063c44e664014610129578063cbd2bdfd14610130578063eded09c314610145575f5ffd5b8062e9074514610088578063165c5881146100cd578063191903f9146100e05780638927b03014610100575b5f5ffd5b6100b0610096366004610753565b60016020525f90815260409020546001600160a01b031681565b6040516001600160a01b0390911681526020015b60405180910390f35b6100b06100db366004610775565b610158565b6100f36100ee366004610753565b61017f565b6040516100c491906107ba565b61010861046b565b6040519081526020016100c4565b6100b061012436600461090c565b610479565b5f54610108565b610138610587565b6040516100c491906109e0565b610138610153366004610a2b565b6105e6565b5f8181548110610166575f80fd5b5f918252602090912001546001600160a01b0316905081565b6040805160e0810182525f8082526020820181905260609282018390529181018290526080810182905260a0810182905260c08101919091525f8290506040518060e00160405280846001600160a01b03168152602001826001600160a01b03166302d05d3f6040518163ffffffff1660e01b8152600401602060405180830381865afa158015610212573d5f5f3e3d5ffd5b505050506040513d601f19601f820116820180604052508101906102369190610a4b565b6001600160a01b03168152602001826001600160a01b0316632e3911426040518163ffffffff1660e01b81526004015f60405180830381865afa15801561027f573d5f5f3e3d5ffd5b505050506040513d5f823e601f3d908101601f191682016040526102a69190810190610a66565b8152602001826001600160a01b031663ef430aa66040518163ffffffff1660e01b8152600401602060405180830381865afa1580156102e7573d5f5f3e3d5ffd5b505050506040513d601f19601f8201168201806040525081019061030b9190610adb565b600481111561031c5761031c610af9565b60ff168152602001826001600160a01b03166329dcb0cf6040518163ffffffff1660e01b8152600401602060405180830381865afa158015610360573d5f5f3e3d5ffd5b505050506040513d601f19601f820116820180604052508101906103849190610b0d565b8152602001826001600160a01b031663200d2ed26040518163ffffffff1660e01b8152600401602060405180830381865afa1580156103c5573d5f5f3e3d5ffd5b505050506040513d601f19601f820116820180604052508101906103e99190610b24565b60038111156103fa576103fa610af9565b60ff168152602001826001600160a01b031663c87da02d6040518163ffffffff1660e01b8152600401602060405180830381865afa15801561043e573d5f5f3e3d5ffd5b505050506040513d601f19601f820116820180604052508101906104629190610b0d565b90529392505050565b5f6104746106eb565b905090565b5f5f338a8a8a8a8a8a8a8a6040516104909061071f565b6104a299989796959493929190610b42565b604051809103905ff0801580156104bb573d5f5f3e3d5ffd5b505f8054600180820183557f290decd9548b62a8d60345a988386fc84ba6bc95484008f6362f93160ef3e56390910180547fffffffffffffffffffffffff00000000000000000000000000000000000000009081166001600160a01b038616908117909255818452602092909252604092839020805433931683179055915192935083929091907fafb5c8ea1807d0a24f727d16f8361f26922daa155ce5d3c5d0670d1e0f66147590610571908a908f90610bc7565b60405180910390a39a9950505050505050505050565b60605f8054806020026020016040519081016040528092919081815260200182805480156105dc57602002820191905f5260205f20905b81546001600160a01b031681526001909101906020018083116105be575b5050505050905090565b5f54606090808410610607575050604080515f8152602081019091526106e5565b5f6106128583610bfe565b90505f8482106106225784610624565b815b90505f8167ffffffffffffffff8111156106405761064061083e565b604051908082528060200260200182016040528015610669578160200160208202803683370190505b5090505f5b828110156106de575f610681828a610c11565b8154811061069157610691610c24565b905f5260205f20015f9054906101000a90046001600160a01b03168282815181106106be576106be610c24565b6001600160a01b039092166020928302919091019091015260010161066e565b5093505050505b92915050565b5f466001036106fa5750600190565b4662aa36a70361070b575061271190565b46617a690361071a57505f1990565b505f90565b611ca680610c3983390190565b6001600160a01b0381168114610740575f5ffd5b50565b803561074e8161072c565b919050565b5f60208284031215610763575f5ffd5b813561076e8161072c565b9392505050565b5f60208284031215610785575f5ffd5b5035919050565b5f81518084528060208401602086015e5f602082860101526020601f19601f83011685010191505092915050565b602081526001600160a01b0382511660208201526001600160a01b0360208301511660408201525f604083015160e060608401526107fc61010084018261078c565b905060ff6060850151166080840152608084015160a084015260a084015161082960c085018260ff169052565b5060c084015160e08401528091505092915050565b634e487b7160e01b5f52604160045260245ffd5b604051601f8201601f1916810167ffffffffffffffff8111828210171561087b5761087b61083e565b604052919050565b5f67ffffffffffffffff82111561089c5761089c61083e565b50601f01601f191660200190565b5f82601f8301126108b9575f5ffd5b81356108cc6108c782610883565b610852565b8181528460208386010111156108e0575f5ffd5b816020850160208301375f918101602001919091529392505050565b803560ff8116811461074e575f5ffd5b5f5f5f5f5f5f5f5f610100898b031215610924575f5ffd5b883567ffffffffffffffff81111561093a575f5ffd5b6109468b828c016108aa565b985050602089013567ffffffffffffffff811115610962575f5ffd5b61096e8b828c016108aa565b975050604089013567ffffffffffffffff81111561098a575f5ffd5b6109968b828c016108aa565b9650506109a560608a01610743565b9450608089013593506109ba60a08a016108fc565b92506109c860c08a01610743565b979a969950949793969295919450919260e001359150565b602080825282518282018190525f918401906040840190835b81811015610a205783516001600160a01b03168352602093840193909201916001016109f9565b509095945050505050565b5f5f60408385031215610a3c575f5ffd5b50508035926020909101359150565b5f60208284031215610a5b575f5ffd5b815161076e8161072c565b5f60208284031215610a76575f5ffd5b815167ffffffffffffffff811115610a8c575f5ffd5b8201601f81018413610a9c575f5ffd5b8051610aaa6108c782610883565b818152856020838501011115610abe575f5ffd5b8160208401602083015e5f91810160200191909152949350505050565b5f60208284031215610aeb575f5ffd5b81516005811061076e575f5ffd5b634e487b7160e01b5f52602160045260245ffd5b5f60208284031215610b1d575f5ffd5b5051919050565b5f60208284031215610b34575f5ffd5b81516004811061076e575f5ffd5b6001600160a01b038a16815261012060208201525f610b6561012083018b61078c565b8281036040840152610b77818b61078c565b90508281036060840152610b8b818a61078c565b6001600160a01b03988916608085015260a0840197909752505060ff9390931660c0840152931660e08201526101000191909152949350505050565b60ff83168152604060208201525f610be2604083018461078c565b949350505050565b634e487b7160e01b5f52601160045260245ffd5b818103818111156106e5576106e5610bea565b808201808211156106e5576106e5610bea565b634e487b7160e01b5f52603260045260245ffdfe60a060405234801561000f575f5ffd5b50604051611ca6380380611ca683398101604081905261002e91610425565b6100e26100396101ae565b80517f9e7b61f58c47dc699ac88507c4f5bb9f121c03808c5676a8078fe583e464970080546001600160a01b03199081166001600160a01b039384161790915560208301517f9e7b61f58c47dc699ac88507c4f5bb9f121c03808c5676a8078fe583e46497018054831691841691909117905560408301517f9e7b61f58c47dc699ac88507c4f5bb9f121c03808c5676a8078fe583e46497028054909216921691909117905550565b6001600160a01b0389166080525f6100fa8982610593565b5060016101078882610593565b5060026101148782610593565b50600380546001600160a01b0319166001600160a01b03871617905560048481555f60055560ff84169081111561014d5761014d61064d565b6006805460ff191660018360048111156101695761016961064d565b02179055506006805461ff001916905542600755600880546001600160a01b0319166001600160a01b0393909316929092179091556009555061066195505050505050565b604080516060810182525f808252602082018190529181019190915246600103610247575060408051606080820183525f8083526020808401829052928401528251908101835273ca2e8f1f656cd25c01f05d0b243ab1ecd4a8ffb6815273d82385dada1ae3e969447f20a3164f6213100e75918101919091527377627828a55156b04ac0dc0eb30467f1a552bb039181019190915290565b4662aa36a7036102c6575060408051606080820183525f8083526020808401829052928401528251908101835273f0ffdc93b7e186bc2f8cb3daa75d86d1930a433d81527392c920834ec8941d2c77d188936e1f7a6f49c1279181019190915273be0e383937d564d7ff0bc3b46c51f0bf8d5c311a9181019190915290565b46617a6903610344575060408051606080820183525f808352602080840182905292840152825190810183527350157cffd6bbfa2dece204a89ec419c23ef5755d815273e3a9105a3a932253a70f126eb1e3b589c643dd249181019190915273901f8942346f7ab3a01f6d7613119bca447bb0309181019190915290565b6040516373cac13b60e01b815260040160405180910390fd5b80516001600160a01b0381168114610373575f5ffd5b919050565b634e487b7160e01b5f52604160045260245ffd5b5f82601f83011261039b575f5ffd5b81516001600160401b038111156103b4576103b4610378565b604051601f8201601f19908116603f011681016001600160401b03811182821017156103e2576103e2610378565b6040528181528382016020018510156103f9575f5ffd5b8160208501602083015e5f918101602001919091529392505050565b805160ff81168114610373575f5ffd5b5f5f5f5f5f5f5f5f5f6101208a8c03121561043e575f5ffd5b6104478a61035d565b60208b01519099506001600160401b03811115610462575f5ffd5b61046e8c828d0161038c565b60408c015190995090506001600160401b0381111561048b575f5ffd5b6104978c828d0161038c565b60608c015190985090506001600160401b038111156104b4575f5ffd5b6104c08c828d0161038c565b9650506104cf60808b0161035d565b60a08b015190955093506104e560c08b01610415565b92506104f360e08b0161035d565b91505f6101008b01519050809150509295985092959850929598565b600181811c9082168061052357607f821691505b60208210810361054157634e487b7160e01b5f52602260045260245ffd5b50919050565b601f82111561058e57805f5260205f20601f840160051c8101602085101561056c5750805b601f840160051c820191505b8181101561058b575f8155600101610578565b50505b505050565b81516001600160401b038111156105ac576105ac610378565b6105c0816105ba845461050f565b84610547565b6020601f8211600181146105f2575f83156105db5750848201515b5f19600385901b1c1916600184901b17845561058b565b5f84815260208120601f198516915b828110156106215787850151825560209485019460019092019101610601565b508482101561063e57868401515f19600387901b60f8161c191681555b50505050600190811b01905550565b634e487b7160e01b5f52602160045260245ffd5b60805161160a61069c5f395f81816101e501528181610474015281816107e50152818161085e01528181610b7b0152610bb4015261160a5ff3fe608060405234801561000f575f5ffd5b50600436106101dc575f3560e01c80639f36522611610109578063d56d229d1161009e578063e6cd064b1161006e578063e6cd064b14610414578063ef430aa61461041c578063fa1ae07c14610436578063fe67a54b14610461575f5ffd5b8063d56d229d146103d2578063dea712b6146103e5578063dfbf53ae146103f9578063e3cfef601461040c575f5ffd5b8063cb6632ef116100d9578063cb6632ef1461036f578063cf09e0d014610384578063cff29dfd1461038d578063d2639dbf146103a0575f5ffd5b80639f3652261461032f578063aa913d0714610337578063c87da02d1461033f578063c8b342ab14610347575f5ffd5b80633013ce291161017f5780638927b0301161014f5780638927b030146102e25780638cf80438146102ea5780638fa8b7901461031e5780639acba2af14610326575f5ffd5b80633013ce29146102ab5780634b00574d146102be5780634cc4f50d146102d15780637e830574146102d9575f5ffd5b80631ec6bdca116101ba5780631ec6bdca14610266578063200d2ed21461026e57806329dcb0cf1461028d5780632e39114214610296575f5ffd5b806302d05d3f146101e05780630f3f02b21461022457806311c7ceb314610251575b5f5ffd5b6102077f000000000000000000000000000000000000000000000000000000000000000081565b6040516001600160a01b0390911681526020015b60405180910390f35b61024361023236600461132e565b600b6020525f908152604090205481565b60405190815260200161021b565b61026461025f366004611347565b610469565b005b600e54610243565b60065461028090610100900460ff1681565b60405161021b919061139c565b61024360055481565b61029e61059e565b60405161021b91906113e4565b600354610207906001600160a01b031681565b6102646102cc3660046113f6565b61062a565b610243603281565b61024360095481565b610243610845565b600f5461030590600160a01b900467ffffffffffffffff1681565b60405167ffffffffffffffff909116815260200161021b565b610264610853565b61024360045481565b61029e610910565b61029e61091d565b600a54610243565b61024361035536600461132e565b6001600160a01b03165f908152600b602052604090205490565b610377610929565b60405161021b919061146d565b61024360075481565b61020761039b3660046114b8565b610989565b6103c26103ae36600461132e565b600c6020525f908152604090205460ff1681565b604051901515815260200161021b565b600854610207906001600160a01b031681565b600f546103c290600160e01b900460ff1681565b600f54610207906001600160a01b031681565b6102436109b1565b600d54610243565b6006546104299060ff1681565b60405161021b91906114cf565b6103c261044436600461132e565b6001600160a01b03165f908152600c602052604090205460ff1690565b6102646109dd565b336001600160a01b037f000000000000000000000000000000000000000000000000000000000000000016146104b2576040516393687c0b60e01b815260040160405180910390fd5b6001600654610100900460ff1660038111156104d0576104d0611388565b146104ee57604051636463738960e01b815260040160405180910390fd5b600f54600160e01b900460ff166105185760405163b7c8356960e01b815260040160405180910390fd5b600f80546001600160a01b0384167fffffffff000000000000000000000000000000000000000000000000000000009091168117600160a01b67ffffffffffffffff851602179091556006805461020061ff00199091161790556040517f3539af76bcb13fa381f2ec32e6d90b9c5e95055778ebdca0e7a192ba07755881905f90a25050565b600180546105ab906114e3565b80601f01602080910402602001604051908101604052809291908181526020018280546105d7906114e3565b80156106225780601f106105f957610100808354040283529160200191610622565b820191905f5260205f20905b81548152906001019060200180831161060557829003601f168201915b505050505081565b5f600654610100900460ff16600381111561064757610647611388565b14610665576040516334dc687f60e11b815260040160405180910390fd5b5f60055411801561067857506005544210155b156106965760405163d02e774d60e01b815260040160405180910390fd5b600a546032118015906106b85750335f908152600c602052604090205460ff16155b156106d6576040516344b4e6c160e11b815260040160405180910390fd5b6005545f036106f0576004546106ec904261152f565b6005555b5f6107308484848080601f0160208091040260200160405190810160405280939291908181526020018383808284375f92019190915250610c9c92505050565b335f908152600b60209081526040808320849055600c90915290205490915060ff166107ca57335f818152600c60205260408120805460ff19166001908117909155600a805491820181559091527fc65a7bb8d6351c1cf70c95a316cc6a92839c986682d98bc35f958f4883f9d2a80180547fffffffffffffffffffffffff00000000000000000000000000000000000000001690911790555b6107d381610d0f565b506107de8133610d2f565b50610809817f0000000000000000000000000000000000000000000000000000000000000000610d2f565b5060405142815233907f3fabff0a9c3ecd6814702e247fa9733e5d0aa69e3a38590f92cb18f623a2254d9060200160405180910390a250505050565b5f61084e610d52565b905090565b336001600160a01b037f0000000000000000000000000000000000000000000000000000000000000000161461089c576040516393687c0b60e01b815260040160405180910390fd5b5f600654610100900460ff1660038111156108b9576108b9611388565b146108d7576040516334dc687f60e11b815260040160405180910390fd5b6006805461ff0019166103001790556040517f3edab9d02702b82c68bc3a966d302af41abe4f3d8e2408b27b94e5f9bf2d722c905f90a1565b600280546105ab906114e3565b5f80546105ab906114e3565b6060600a80548060200260200160405190810160405280929190818152602001828054801561097f57602002820191905f5260205f20905b81546001600160a01b03168152600190910190602001808311610961575b5050505050905090565b600a8181548110610998575f80fd5b5f918252602090912001546001600160a01b0316905081565b5f6005545f036109c157505f1990565b60055442106109cf57505f90565b4260055461084e9190611542565b600554421015610a0057604051636463738960e01b815260040160405180910390fd5b5f600654610100900460ff166003811115610a1d57610a1d611388565b14610a3b576040516334dc687f60e11b815260040160405180910390fd5b600a545f03610a5d5760405163c3bc404360e01b815260040160405180910390fd5b5f600b5f600a5f81548110610a7457610a74611555565b5f9182526020808320909101546001600160a01b031683528201929092526040018120549150610aa381610d86565b905060015b600a54811015610b30575f600b5f600a8481548110610ac957610ac9611555565b5f9182526020808320909101546001600160a01b031683528201929092526040018120549150610af98286610d96565b9050610b06818387610dc4565b94505f610b1284610d86565b9050610b1f828287610e0d565b94505060019092019150610aa89050565b50600d829055600e819055600f80547fffffff00ffffffffffffffffffffffffffffffffffffffffffffffffffffffff16600160e01b179055610b7282610d0f565b50610b9f600d547f0000000000000000000000000000000000000000000000000000000000000000610d2f565b50610bab600e54610e3e565b50610bd8600e547f0000000000000000000000000000000000000000000000000000000000000000610e4d565b505f5b600a54811015610c5357610c17600d54600a8381548110610bfe57610bfe611555565b5f918252602090912001546001600160a01b0316610d2f565b50610c4a600e54600a8381548110610c3157610c31611555565b5f918252602090912001546001600160a01b0316610e4d565b50600101610bdb565b506006805461ff001916610100179055600a5460408051918252517f45806e512b1f4f10e33e8b3cb64d1d11d998d8c554a95e0841fc1c701278bd5d9181900360200190a15050565b5f81515f14610cb857610cb183836005610e5c565b9050610d09565b825f819003610cd257610cca5f610f7c565b915050610d09565b610cdc8133610f92565b610d0657604051630276b5d960e01b81526004810182905233602482015260440160405180910390fd5b90505b92915050565b5f81610d2157610d1e5f610f7c565b91505b610d2b8230611031565b5090565b5f82610d4157610d3e5f610f7c565b92505b610d4b8383611031565b5090919050565b5f46600103610d615750600190565b4662aa36a703610d72575061271190565b46617a6903610d8157505f1990565b505f90565b5f610d098261ffff1660036110ba565b5f82610da857610da55f610f7c565b92505b81610db957610db65f610f7c565b91505b610d0683835f61116f565b5f83610dd657610dd35f61124f565b93505b82610de757610de45f610f7c565b92505b81610df857610df55f610f7c565b91505b610e0384848461126a565b90505b9392505050565b5f83610e1f57610e1c5f61124f565b93505b82610e3057610e2d5f610d86565b92505b81610df857610df55f610d86565b5f81610d2157610d1e5f610d86565b5f82610d4157610d3e5f610d86565b7f9e7b61f58c47dc699ac88507c4f5bb9f121c03808c5676a8078fe583e46497015460405163045fc19560e11b81525f917f9e7b61f58c47dc699ac88507c4f5bb9f121c03808c5676a8078fe583e4649700916001600160a01b03909116906308bf832a90610ed590889033908990899060040161157d565b6020604051808303815f875af1158015610ef1573d5f5f3e3d5ffd5b505050506040513d601f19601f82011682018060405250810190610f1591906115b3565b8154604051630f8e573b60e21b8152600481018390523360248201529193506001600160a01b031690633e395cec906044015f604051808303815f87803b158015610f5e575f5ffd5b505af1158015610f70573d5f5f3e3d5ffd5b50505050509392505050565b5f610d098267ffffffffffffffff1660056110ba565b5f807f9e7b61f58c47dc699ac88507c4f5bb9f121c03808c5676a8078fe583e464970080546040516382027b6d60e01b8152600481018790526001600160a01b0386811660248301529293509116906382027b6d90604401602060405180830381865afa158015611005573d5f5f3e3d5ffd5b505050506040513d601f19601f8201168201806040525081019061102991906115ca565b949350505050565b5f7f9e7b61f58c47dc699ac88507c4f5bb9f121c03808c5676a8078fe583e46497008054604051635ca4b5b160e11b8152600481018690526001600160a01b03858116602483015292935091169063b9496b62906044015f604051808303815f87803b15801561109f575f5ffd5b505af11580156110b1573d5f5f3e3d5ffd5b50505050505050565b7f9e7b61f58c47dc699ac88507c4f5bb9f121c03808c5676a8078fe583e464970154604051639cd07acb60e01b81525f917f9e7b61f58c47dc699ac88507c4f5bb9f121c03808c5676a8078fe583e4649700916001600160a01b0390911690639cd07acb9061112f90879087906004016115e9565b6020604051808303815f875af115801561114b573d5f5f3e3d5ffd5b505050506040513d601f19601f8201168201806040525081019061102991906115b3565b5f5f82156111825750600160f81b611185565b505f5b5f7f9e7b61f58c47dc699ac88507c4f5bb9f121c03808c5676a8078fe583e464970060018101546040516385362ee760e01b815260048101899052602481018890527fff00000000000000000000000000000000000000000000000000000000000000851660448201529192506001600160a01b0316906385362ee7906064016020604051808303815f875af1158015611221573d5f5f3e3d5ffd5b505050506040513d601f19601f8201168201806040525081019061124591906115b3565b9695505050505050565b5f610d098261125e575f611261565b60015b60ff165f6110ba565b5f807f9e7b61f58c47dc699ac88507c4f5bb9f121c03808c5676a8078fe583e46497006001810154604051637702dcff60e01b81526004810188905260248101879052604481018690529192506001600160a01b031690637702dcff906064016020604051808303815f875af11580156112e6573d5f5f3e3d5ffd5b505050506040513d601f19601f8201168201806040525081019061130a91906115b3565b95945050505050565b80356001600160a01b0381168114611329575f5ffd5b919050565b5f6020828403121561133e575f5ffd5b610d0682611313565b5f5f60408385031215611358575f5ffd5b61136183611313565b9150602083013567ffffffffffffffff8116811461137d575f5ffd5b809150509250929050565b634e487b7160e01b5f52602160045260245ffd5b60208101600483106113b0576113b0611388565b91905290565b5f81518084528060208401602086015e5f602082860101526020601f19601f83011685010191505092915050565b602081525f610d0660208301846113b6565b5f5f5f60408486031215611408575f5ffd5b83359250602084013567ffffffffffffffff811115611425575f5ffd5b8401601f81018613611435575f5ffd5b803567ffffffffffffffff81111561144b575f5ffd5b86602082840101111561145c575f5ffd5b939660209190910195509293505050565b602080825282518282018190525f918401906040840190835b818110156114ad5783516001600160a01b0316835260209384019390920191600101611486565b509095945050505050565b5f602082840312156114c8575f5ffd5b5035919050565b60208101600583106113b0576113b0611388565b600181811c908216806114f757607f821691505b60208210810361151557634e487b7160e01b5f52602260045260245ffd5b50919050565b634e487b7160e01b5f52601160045260245ffd5b80820180821115610d0957610d0961151b565b81810381811115610d0957610d0961151b565b634e487b7160e01b5f52603260045260245ffd5b6054811061157957611579611388565b9052565b8481526001600160a01b0384166020820152608060408201525f6115a460808301856113b6565b905061130a6060830184611569565b5f602082840312156115c3575f5ffd5b5051919050565b5f602082840312156115da575f5ffd5b81518015158114610e06575f5ffd5b82815260408101610e06602083018461156956fea164736f6c634300081b000aa164736f6c634300081b000a",
  "devdoc": {
    "kind": "dev",
    "methods": {},
    "version": 1
  },
  "userdoc": {
    "errors": {
      "ZamaProtocolUnsupported()": [
        {
          "notice": "Returned if the Zama protocol is not supported on the current chain"
        }
      ]
    },
    "kind": "user",
    "methods": {},
    "version": 1
  },
  "storageLayout": {
    "storage": [
      {
        "astId": 42181,
        "contract": "contracts/AuctionFactory.sol:AuctionFactory",
        "label": "allAuctions",
        "offset": 0,
        "slot": "0",
        "type": "t_array(t_address)dyn_storage"
      },
      {
        "astId": 42185,
        "contract": "contracts/AuctionFactory.sol:AuctionFactory",
        "label": "auctionCreators",
        "offset": 0,
        "slot": "1",
        "type": "t_mapping(t_address,t_address)"
      }
    ],
    "types": {
      "t_address": {
        "encoding": "inplace",
        "label": "address",
        "numberOfBytes": "20"
      },
      "t_array(t_address)dyn_storage": {
        "base": "t_address",
        "encoding": "dynamic_array",
        "label": "address[]",
        "numberOfBytes": "32"
      },
      "t_mapping(t_address,t_address)": {
        "encoding": "mapping",
        "key": "t_address",
        "label": "mapping(address => address)",
        "numberOfBytes": "32",
        "value": "t_address"
      }
    }
  }
}